{
  "_format": "hh-sol-artifact-1",
  "contractName": "PropertyEscrow",
  "sourceName": "contracts/PropertyEscrow.sol",
  "abi": [
    {
      "inputs": [
        {
          "internalType": "address",
          "name": "_buyer",
          "type": "address"
        },
        {
          "internalType": "address",
          "name": "_buyerSolicitor",
          "type": "address"
        },
        {
          "internalType": "address",
          "name": "_seller",
          "type": "address"
        },
        {
          "internalType": "uint256",
          "name": "_price",
          "type": "uint256"
        },
        {
          "internalType": "address",
          "name": "_propertyToken",
          "type": "address"
        },
        {
          "internalType": "uint256",
          "name": "_tokenId",
          "type": "uint256"
        }
      ],
      "stateMutability": "nonpayable",
      "type": "constructor"
    },
    {
      "anonymous": false,
      "inputs": [
        {
          "indexed": true,
          "internalType": "address",
          "name": "buyer",
          "type": "address"
        },
        {
          "indexed": true,
          "internalType": "address",
          "name": "seller",
          "type": "address"
        },
        {
          "indexed": false,
          "internalType": "uint256",
          "name": "tokenId",
          "type": "uint256"
        }
      ],
      "name": "Completed",
      "type": "event"
    },
    {
      "anonymous": false,
      "inputs": [
        {
          "indexed": true,
          "internalType": "address",
          "name": "from",
          "type": "address"
        },
        {
          "indexed": false,
          "internalType": "uint256",
          "name": "amount",
          "type": "uint256"
        }
      ],
      "name": "Deposited",
      "type": "event"
    },
    {
      "anonymous": false,
      "inputs": [
        {
          "indexed": true,
          "internalType": "address",
          "name": "to",
          "type": "address"
        },
        {
          "indexed": false,
          "internalType": "uint256",
          "name": "amount",
          "type": "uint256"
        }
      ],
      "name": "Refunded",
      "type": "event"
    },
    {
      "inputs": [],
      "name": "buyer",
      "outputs": [
        {
          "internalType": "address",
          "name": "",
          "type": "address"
        }
      ],
      "stateMutability": "view",
      "type": "function"
    },
    {
      "inputs": [],
      "name": "buyerSolicitor",
      "outputs": [
        {
          "internalType": "address",
          "name": "",
          "type": "address"
        }
      ],
      "stateMutability": "view",
      "type": "function"
    },
    {
      "inputs": [],
      "name": "deposit",
      "outputs": [],
      "stateMutability": "payable",
      "type": "function"
    },
    {
      "inputs": [],
      "name": "getState",
      "outputs": [
        {
          "internalType": "enum PropertyEscrow.State",
          "name": "",
          "type": "uint8"
        }
      ],
      "stateMutability": "view",
      "type": "function"
    },
    {
      "inputs": [],
      "name": "price",
      "outputs": [
        {
          "internalType": "uint256",
          "name": "",
          "type": "uint256"
        }
      ],
      "stateMutability": "view",
      "type": "function"
    },
    {
      "inputs": [],
      "name": "propertyToken",
      "outputs": [
        {
          "internalType": "contract PropertyToken",
          "name": "",
          "type": "address"
        }
      ],
      "stateMutability": "view",
      "type": "function"
    },
    {
      "inputs": [],
      "name": "refundBuyer",
      "outputs": [],
      "stateMutability": "nonpayable",
      "type": "function"
    },
    {
      "inputs": [],
      "name": "seller",
      "outputs": [
        {
          "internalType": "address",
          "name": "",
          "type": "address"
        }
      ],
      "stateMutability": "view",
      "type": "function"
    },
    {
      "inputs": [],
      "name": "state",
      "outputs": [
        {
          "internalType": "enum PropertyEscrow.State",
          "name": "",
          "type": "uint8"
        }
      ],
      "stateMutability": "view",
      "type": "function"
    },
    {
      "inputs": [],
      "name": "tokenId",
      "outputs": [
        {
          "internalType": "uint256",
          "name": "",
          "type": "uint256"
        }
      ],
      "stateMutability": "view",
      "type": "function"
    },
    {
      "inputs": [],
      "name": "verifyAndComplete",
      "outputs": [],
      "stateMutability": "nonpayable",
      "type": "function"
    }
  ],
  "bytecode": "0x608060405234801561001057600080fd5b506040516112b53803806112b583398181016040528101906100329190610212565b856000806101000a81548173ffffffffffffffffffffffffffffffffffffffff021916908373ffffffffffffffffffffffffffffffffffffffff16021790555084600160006101000a81548173ffffffffffffffffffffffffffffffffffffffff021916908373ffffffffffffffffffffffffffffffffffffffff16021790555083600260006101000a81548173ffffffffffffffffffffffffffffffffffffffff021916908373ffffffffffffffffffffffffffffffffffffffff1602179055508260038190555081600560006101000a81548173ffffffffffffffffffffffffffffffffffffffff021916908373ffffffffffffffffffffffffffffffffffffffff160217905550806004819055506000600560146101000a81548160ff021916908360038111156101695761016861029f565b5b02179055505050505050506102ce565b600080fd5b600073ffffffffffffffffffffffffffffffffffffffff82169050919050565b60006101a98261017e565b9050919050565b6101b98161019e565b81146101c457600080fd5b50565b6000815190506101d6816101b0565b92915050565b6000819050919050565b6101ef816101dc565b81146101fa57600080fd5b50565b60008151905061020c816101e6565b92915050565b60008060008060008060c0878903121561022f5761022e610179565b5b600061023d89828a016101c7565b965050602061024e89828a016101c7565b955050604061025f89828a016101c7565b945050606061027089828a016101fd565b935050608061028189828a016101c7565b92505060a061029289828a016101fd565b9150509295509295509295565b7f4e487b7100000000000000000000000000000000000000000000000000000000600052602160045260246000fd5b610fd8806102dd6000396000f3fe60806040526004361061009c5760003560e01c80637150d8ae116100645780637150d8ae14610178578063a035b1fe146101a3578063c19d93fb146101ce578063d0e30db0146101f9578063e2f4f49d14610203578063e8a61cc81461021a5761009c565b806308551a53146100a157806317d70f7c146100cc5780631865c57d146100f75780633e7740d71461012257806343ae26951461014d575b600080fd5b3480156100ad57600080fd5b506100b6610231565b6040516100c39190610b19565b60405180910390f35b3480156100d857600080fd5b506100e1610257565b6040516100ee9190610b4d565b60405180910390f35b34801561010357600080fd5b5061010c61025d565b6040516101199190610bdf565b60405180910390f35b34801561012e57600080fd5b50610137610274565b6040516101449190610b19565b60405180910390f35b34801561015957600080fd5b5061016261029a565b60405161016f9190610c59565b60405180910390f35b34801561018457600080fd5b5061018d6102c0565b60405161019a9190610b19565b60405180910390f35b3480156101af57600080fd5b506101b86102e4565b6040516101c59190610b4d565b60405180910390f35b3480156101da57600080fd5b506101e36102ea565b6040516101f09190610bdf565b60405180910390f35b6102016102fd565b005b34801561020f57600080fd5b506102186104c2565b005b34801561022657600080fd5b5061022f6108ce565b005b600260009054906101000a900473ffffffffffffffffffffffffffffffffffffffff1681565b60045481565b6000600560149054906101000a900460ff16905090565b600160009054906101000a900473ffffffffffffffffffffffffffffffffffffffff1681565b600560009054906101000a900473ffffffffffffffffffffffffffffffffffffffff1681565b60008054906101000a900473ffffffffffffffffffffffffffffffffffffffff1681565b60035481565b600560149054906101000a900460ff1681565b600160009054906101000a900473ffffffffffffffffffffffffffffffffffffffff1673ffffffffffffffffffffffffffffffffffffffff163373ffffffffffffffffffffffffffffffffffffffff161461038d576040517f08c379a000000000000000000000000000000000000000000000000000000000815260040161038490610cd1565b60405180910390fd5b600060038111156103a1576103a0610b68565b5b600560149054906101000a900460ff1660038111156103c3576103c2610b68565b5b14610403576040517f08c379a00000000000000000000000000000000000000000000000000000000081526004016103fa90610d3d565b60405180910390fd5b6003543414610447576040517f08c379a000000000000000000000000000000000000000000000000000000000815260040161043e90610da9565b60405180910390fd5b6001600560146101000a81548160ff0219169083600381111561046d5761046c610b68565b5b02179055503373ffffffffffffffffffffffffffffffffffffffff167f2da466a7b24304f47e87fa2e1e5a81b9831ce54fec19055ce277ca2f39ba42c4346040516104b89190610b4d565b60405180910390a2565b600160009054906101000a900473ffffffffffffffffffffffffffffffffffffffff1673ffffffffffffffffffffffffffffffffffffffff163373ffffffffffffffffffffffffffffffffffffffff1614610552576040517f08c379a000000000000000000000000000000000000000000000000000000000815260040161054990610cd1565b60405180910390fd5b6001600381111561056657610565610b68565b5b600560149054906101000a900460ff16600381111561058857610587610b68565b5b146105c8576040517f08c379a00000000000000000000000000000000000000000000000000000000081526004016105bf90610e15565b60405180910390fd5b6000600560009054906101000a900473ffffffffffffffffffffffffffffffffffffffff1673ffffffffffffffffffffffffffffffffffffffff16636352211e6004546040518263ffffffff1660e01b81526004016106279190610b4d565b602060405180830381865afa158015610644573d6000803e3d6000fd5b505050506040513d601f19601f820116820180604052508101906106689190610e66565b9050600073ffffffffffffffffffffffffffffffffffffffff168173ffffffffffffffffffffffffffffffffffffffff16036106d9576040517f08c379a00000000000000000000000000000000000000000000000000000000081526004016106d090610edf565b60405180910390fd5b600560009054906101000a900473ffffffffffffffffffffffffffffffffffffffff1673ffffffffffffffffffffffffffffffffffffffff166323b872dd8260008054906101000a900473ffffffffffffffffffffffffffffffffffffffff166004546040518463ffffffff1660e01b815260040161075a93929190610eff565b600060405180830381600087803b15801561077457600080fd5b505af1158015610788573d6000803e3d6000fd5b50505050600260009054906101000a900473ffffffffffffffffffffffffffffffffffffffff1673ffffffffffffffffffffffffffffffffffffffff166108fc6003549081150290604051600060405180830381858888f193505050501580156107f6573d6000803e3d6000fd5b506002600560146101000a81548160ff0219169083600381111561081d5761081c610b68565b5b0217905550600260009054906101000a900473ffffffffffffffffffffffffffffffffffffffff1673ffffffffffffffffffffffffffffffffffffffff1660008054906101000a900473ffffffffffffffffffffffffffffffffffffffff1673ffffffffffffffffffffffffffffffffffffffff167fcdb9f4e58f1d1744a76d4003dc0c940c04eb85e7c04b3ce13f230594318c995d6004546040516108c39190610b4d565b60405180910390a350565b600160009054906101000a900473ffffffffffffffffffffffffffffffffffffffff1673ffffffffffffffffffffffffffffffffffffffff163373ffffffffffffffffffffffffffffffffffffffff161461095e576040517f08c379a000000000000000000000000000000000000000000000000000000000815260040161095590610cd1565b60405180910390fd5b6001600381111561097257610971610b68565b5b600560149054906101000a900460ff16600381111561099457610993610b68565b5b146109d4576040517f08c379a00000000000000000000000000000000000000000000000000000000081526004016109cb90610f82565b60405180910390fd5b60008054906101000a900473ffffffffffffffffffffffffffffffffffffffff1673ffffffffffffffffffffffffffffffffffffffff166108fc479081150290604051600060405180830381858888f19350505050158015610a3a573d6000803e3d6000fd5b506003600560146101000a81548160ff02191690836003811115610a6157610a60610b68565b5b021790555060008054906101000a900473ffffffffffffffffffffffffffffffffffffffff1673ffffffffffffffffffffffffffffffffffffffff167fd7dee2702d63ad89917b6a4da9981c90c4d24f8c2bdfd64c604ecae57d8d0651600354604051610ace9190610b4d565b60405180910390a2565b600073ffffffffffffffffffffffffffffffffffffffff82169050919050565b6000610b0382610ad8565b9050919050565b610b1381610af8565b82525050565b6000602082019050610b2e6000830184610b0a565b92915050565b6000819050919050565b610b4781610b34565b82525050565b6000602082019050610b626000830184610b3e565b92915050565b7f4e487b7100000000000000000000000000000000000000000000000000000000600052602160045260246000fd5b60048110610ba857610ba7610b68565b5b50565b6000819050610bb982610b97565b919050565b6000610bc982610bab565b9050919050565b610bd981610bbe565b82525050565b6000602082019050610bf46000830184610bd0565b92915050565b6000819050919050565b6000610c1f610c1a610c1584610ad8565b610bfa565b610ad8565b9050919050565b6000610c3182610c04565b9050919050565b6000610c4382610c26565b9050919050565b610c5381610c38565b82525050565b6000602082019050610c6e6000830184610c4a565b92915050565b600082825260208201905092915050565b7f4f6e6c79206275796572277320736f6c696369746f7220616c6c6f7765640000600082015250565b6000610cbb601e83610c74565b9150610cc682610c85565b602082019050919050565b60006020820190508181036000830152610cea81610cae565b9050919050565b7f4e6f74206177616974696e67207061796d656e74000000000000000000000000600082015250565b6000610d27601483610c74565b9150610d3282610cf1565b602082019050919050565b60006020820190508181036000830152610d5681610d1a565b9050919050565b7f496e636f7272656374207061796d656e7420616d6f756e740000000000000000600082015250565b6000610d93601883610c74565b9150610d9e82610d5d565b602082019050919050565b60006020820190508181036000830152610dc281610d86565b9050919050565b7f4e6f7420696e20766572696669636174696f6e20706861736500000000000000600082015250565b6000610dff601983610c74565b9150610e0a82610dc9565b602082019050919050565b60006020820190508181036000830152610e2e81610df2565b9050919050565b600080fd5b610e4381610af8565b8114610e4e57600080fd5b50565b600081519050610e6081610e3a565b92915050565b600060208284031215610e7c57610e7b610e35565b5b6000610e8a84828501610e51565b91505092915050565b7f496e76616c6964204e4654206f776e6572000000000000000000000000000000600082015250565b6000610ec9601183610c74565b9150610ed482610e93565b602082019050919050565b60006020820190508181036000830152610ef881610ebc565b9050919050565b6000606082019050610f146000830186610b0a565b610f216020830185610b0a565b610f2e6040830184610b3e565b949350505050565b7f526566756e64206e6f7420616c6c6f7765640000000000000000000000000000600082015250565b6000610f6c601283610c74565b9150610f7782610f36565b602082019050919050565b60006020820190508181036000830152610f9b81610f5f565b905091905056fea2646970667358221220bfa06d05a6b7166cea1a5fd0097f84aeb54409bcfa2c2c66598730617f8d681264736f6c634300081c0033",
  "linkReferences": {},
  "deployedLinkReferences": {}
}