{
  "_format": "hh-sol-artifact-1",
  "contractName": "PropertyToken",
  "sourceName": "contracts/PropertyToken.sol",
  "abi": [
    {
      "inputs": [
        {
          "internalType": "address",
          "name": "admin",
          "type": "address"
        }
      ],
      "stateMutability": "nonpayable",
      "type": "constructor"
    },
    {
      "inputs": [],
      "name": "AccessControlBadConfirmation",
      "type": "error"
    },
    {
      "inputs": [
        {
          "internalType": "address",
          "name": "account",
          "type": "address"
        },
        {
          "internalType": "bytes32",
          "name": "neededRole",
          "type": "bytes32"
        }
      ],
      "name": "AccessControlUnauthorizedAccount",
      "type": "error"
    },
    {
      "inputs": [
        {
          "internalType": "address",
          "name": "sender",
          "type": "address"
        },
        {
          "internalType": "uint256",
          "name": "tokenId",
          "type": "uint256"
        },
        {
          "internalType": "address",
          "name": "owner",
          "type": "address"
        }
      ],
      "name": "ERC721IncorrectOwner",
      "type": "error"
    },
    {
      "inputs": [
        {
          "internalType": "address",
          "name": "operator",
          "type": "address"
        },
        {
          "internalType": "uint256",
          "name": "tokenId",
          "type": "uint256"
        }
      ],
      "name": "ERC721InsufficientApproval",
      "type": "error"
    },
    {
      "inputs": [
        {
          "internalType": "address",
          "name": "approver",
          "type": "address"
        }
      ],
      "name": "ERC721InvalidApprover",
      "type": "error"
    },
    {
      "inputs": [
        {
          "internalType": "address",
          "name": "operator",
          "type": "address"
        }
      ],
      "name": "ERC721InvalidOperator",
      "type": "error"
    },
    {
      "inputs": [
        {
          "internalType": "address",
          "name": "owner",
          "type": "address"
        }
      ],
      "name": "ERC721InvalidOwner",
      "type": "error"
    },
    {
      "inputs": [
        {
          "internalType": "address",
          "name": "receiver",
          "type": "address"
        }
      ],
      "name": "ERC721InvalidReceiver",
      "type": "error"
    },
    {
      "inputs": [
        {
          "internalType": "address",
          "name": "sender",
          "type": "address"
        }
      ],
      "name": "ERC721InvalidSender",
      "type": "error"
    },
    {
      "inputs": [
        {
          "internalType": "uint256",
          "name": "tokenId",
          "type": "uint256"
        }
      ],
      "name": "ERC721NonexistentToken",
      "type": "error"
    },
    {
      "anonymous": false,
      "inputs": [
        {
          "indexed": true,
          "internalType": "address",
          "name": "owner",
          "type": "address"
        },
        {
          "indexed": true,
          "internalType": "address",
          "name": "approved",
          "type": "address"
        },
        {
          "indexed": true,
          "internalType": "uint256",
          "name": "tokenId",
          "type": "uint256"
        }
      ],
      "name": "Approval",
      "type": "event"
    },
    {
      "anonymous": false,
      "inputs": [
        {
          "indexed": true,
          "internalType": "address",
          "name": "owner",
          "type": "address"
        },
        {
          "indexed": true,
          "internalType": "address",
          "name": "operator",
          "type": "address"
        },
        {
          "indexed": false,
          "internalType": "bool",
          "name": "approved",
          "type": "bool"
        }
      ],
      "name": "ApprovalForAll",
      "type": "event"
    },
    {
      "anonymous": false,
      "inputs": [
        {
          "indexed": true,
          "internalType": "bytes32",
          "name": "role",
          "type": "bytes32"
        },
        {
          "indexed": true,
          "internalType": "bytes32",
          "name": "previousAdminRole",
          "type": "bytes32"
        },
        {
          "indexed": true,
          "internalType": "bytes32",
          "name": "newAdminRole",
          "type": "bytes32"
        }
      ],
      "name": "RoleAdminChanged",
      "type": "event"
    },
    {
      "anonymous": false,
      "inputs": [
        {
          "indexed": true,
          "internalType": "bytes32",
          "name": "role",
          "type": "bytes32"
        },
        {
          "indexed": true,
          "internalType": "address",
          "name": "account",
          "type": "address"
        },
        {
          "indexed": true,
          "internalType": "address",
          "name": "sender",
          "type": "address"
        }
      ],
      "name": "RoleGranted",
      "type": "event"
    },
    {
      "anonymous": false,
      "inputs": [
        {
          "indexed": true,
          "internalType": "bytes32",
          "name": "role",
          "type": "bytes32"
        },
        {
          "indexed": true,
          "internalType": "address",
          "name": "account",
          "type": "address"
        },
        {
          "indexed": true,
          "internalType": "address",
          "name": "sender",
          "type": "address"
        }
      ],
      "name": "RoleRevoked",
      "type": "event"
    },
    {
      "anonymous": false,
      "inputs": [
        {
          "indexed": true,
          "internalType": "address",
          "name": "from",
          "type": "address"
        },
        {
          "indexed": true,
          "internalType": "address",
          "name": "to",
          "type": "address"
        },
        {
          "indexed": true,
          "internalType": "uint256",
          "name": "tokenId",
          "type": "uint256"
        }
      ],
      "name": "Transfer",
      "type": "event"
    },
    {
      "inputs": [],
      "name": "DEFAULT_ADMIN_ROLE",
      "outputs": [
        {
          "internalType": "bytes32",
          "name": "",
          "type": "bytes32"
        }
      ],
      "stateMutability": "view",
      "type": "function"
    },
    {
      "inputs": [],
      "name": "SELLER_ROLE",
      "outputs": [
        {
          "internalType": "bytes32",
          "name": "",
          "type": "bytes32"
        }
      ],
      "stateMutability": "view",
      "type": "function"
    },
    {
      "inputs": [
        {
          "internalType": "address",
          "name": "to",
          "type": "address"
        },
        {
          "internalType": "uint256",
          "name": "tokenId",
          "type": "uint256"
        }
      ],
      "name": "approve",
      "outputs": [],
      "stateMutability": "nonpayable",
      "type": "function"
    },
    {
      "inputs": [
        {
          "internalType": "address",
          "name": "owner",
          "type": "address"
        }
      ],
      "name": "balanceOf",
      "outputs": [
        {
          "internalType": "uint256",
          "name": "",
          "type": "uint256"
        }
      ],
      "stateMutability": "view",
      "type": "function"
    },
    {
      "inputs": [
        {
          "internalType": "uint256",
          "name": "tokenId",
          "type": "uint256"
        }
      ],
      "name": "getApproved",
      "outputs": [
        {
          "internalType": "address",
          "name": "",
          "type": "address"
        }
      ],
      "stateMutability": "view",
      "type": "function"
    },
    {
      "inputs": [
        {
          "internalType": "bytes32",
          "name": "role",
          "type": "bytes32"
        }
      ],
      "name": "getRoleAdmin",
      "outputs": [
        {
          "internalType": "bytes32",
          "name": "",
          "type": "bytes32"
        }
      ],
      "stateMutability": "view",
      "type": "function"
    },
    {
      "inputs": [
        {
          "internalType": "bytes32",
          "name": "role",
          "type": "bytes32"
        },
        {
          "internalType": "address",
          "name": "account",
          "type": "address"
        }
      ],
      "name": "grantRole",
      "outputs": [],
      "stateMutability": "nonpayable",
      "type": "function"
    },
    {
      "inputs": [
        {
          "internalType": "address",
          "name": "seller",
          "type": "address"
        }
      ],
      "name": "grantSellerRole",
      "outputs": [],
      "stateMutability": "nonpayable",
      "type": "function"
    },
    {
      "inputs": [
        {
          "internalType": "bytes32",
          "name": "role",
          "type": "bytes32"
        },
        {
          "internalType": "address",
          "name": "account",
          "type": "address"
        }
      ],
      "name": "hasRole",
      "outputs": [
        {
          "internalType": "bool",
          "name": "",
          "type": "bool"
        }
      ],
      "stateMutability": "view",
      "type": "function"
    },
    {
      "inputs": [
        {
          "internalType": "address",
          "name": "owner",
          "type": "address"
        },
        {
          "internalType": "address",
          "name": "operator",
          "type": "address"
        }
      ],
      "name": "isApprovedForAll",
      "outputs": [
        {
          "internalType": "bool",
          "name": "",
          "type": "bool"
        }
      ],
      "stateMutability": "view",
      "type": "function"
    },
    {
      "inputs": [
        {
          "internalType": "address",
          "name": "to",
          "type": "address"
        },
        {
          "internalType": "string",
          "name": "uri",
          "type": "string"
        }
      ],
      "name": "mint",
      "outputs": [
        {
          "internalType": "uint256",
          "name": "",
          "type": "uint256"
        }
      ],
      "stateMutability": "nonpayable",
      "type": "function"
    },
    {
      "inputs": [],
      "name": "name",
      "outputs": [
        {
          "internalType": "string",
          "name": "",
          "type": "string"
        }
      ],
      "stateMutability": "view",
      "type": "function"
    },
    {
      "inputs": [],
      "name": "nextTokenId",
      "outputs": [
        {
          "internalType": "uint256",
          "name": "",
          "type": "uint256"
        }
      ],
      "stateMutability": "view",
      "type": "function"
    },
    {
      "inputs": [
        {
          "internalType": "uint256",
          "name": "tokenId",
          "type": "uint256"
        }
      ],
      "name": "ownerOf",
      "outputs": [
        {
          "internalType": "address",
          "name": "",
          "type": "address"
        }
      ],
      "stateMutability": "view",
      "type": "function"
    },
    {
      "inputs": [
        {
          "internalType": "bytes32",
          "name": "role",
          "type": "bytes32"
        },
        {
          "internalType": "address",
          "name": "callerConfirmation",
          "type": "address"
        }
      ],
      "name": "renounceRole",
      "outputs": [],
      "stateMutability": "nonpayable",
      "type": "function"
    },
    {
      "inputs": [
        {
          "internalType": "bytes32",
          "name": "role",
          "type": "bytes32"
        },
        {
          "internalType": "address",
          "name": "account",
          "type": "address"
        }
      ],
      "name": "revokeRole",
      "outputs": [],
      "stateMutability": "nonpayable",
      "type": "function"
    },
    {
      "inputs": [
        {
          "internalType": "address",
          "name": "from",
          "type": "address"
        },
        {
          "internalType": "address",
          "name": "to",
          "type": "address"
        },
        {
          "internalType": "uint256",
          "name": "tokenId",
          "type": "uint256"
        }
      ],
      "name": "safeTransferFrom",
      "outputs": [],
      "stateMutability": "nonpayable",
      "type": "function"
    },
    {
      "inputs": [
        {
          "internalType": "address",
          "name": "from",
          "type": "address"
        },
        {
          "internalType": "address",
          "name": "to",
          "type": "address"
        },
        {
          "internalType": "uint256",
          "name": "tokenId",
          "type": "uint256"
        },
        {
          "internalType": "bytes",
          "name": "data",
          "type": "bytes"
        }
      ],
      "name": "safeTransferFrom",
      "outputs": [],
      "stateMutability": "nonpayable",
      "type": "function"
    },
    {
      "inputs": [
        {
          "internalType": "address",
          "name": "operator",
          "type": "address"
        },
        {
          "internalType": "bool",
          "name": "approved",
          "type": "bool"
        }
      ],
      "name": "setApprovalForAll",
      "outputs": [],
      "stateMutability": "nonpayable",
      "type": "function"
    },
    {
      "inputs": [
        {
          "internalType": "bytes4",
          "name": "interfaceId",
          "type": "bytes4"
        }
      ],
      "name": "supportsInterface",
      "outputs": [
        {
          "internalType": "bool",
          "name": "",
          "type": "bool"
        }
      ],
      "stateMutability": "view",
      "type": "function"
    },
    {
      "inputs": [],
      "name": "symbol",
      "outputs": [
        {
          "internalType": "string",
          "name": "",
          "type": "string"
        }
      ],
      "stateMutability": "view",
      "type": "function"
    },
    {
      "inputs": [
        {
          "internalType": "uint256",
          "name": "tokenId",
          "type": "uint256"
        }
      ],
      "name": "tokenURI",
      "outputs": [
        {
          "internalType": "string",
          "name": "",
          "type": "string"
        }
      ],
      "stateMutability": "view",
      "type": "function"
    },
    {
      "inputs": [
        {
          "internalType": "address",
          "name": "from",
          "type": "address"
        },
        {
          "internalType": "address",
          "name": "to",
          "type": "address"
        },
        {
          "internalType": "uint256",
          "name": "tokenId",
          "type": "uint256"
        }
      ],
      "name": "transferFrom",
      "outputs": [],
      "stateMutability": "nonpayable",
      "type": "function"
    }
  ],
  "bytecode": "0x608060405234801561001057600080fd5b50604051612cd0380380612cd0833981810160405281019061003291906102ae565b6040518060400160405280600d81526020017f50726f70657274795469746c65000000000000000000000000000000000000008152506040518060400160405280600481526020017f50524f500000000000000000000000000000000000000000000000000000000081525081600090816100ad919061052b565b5080600190816100bd919061052b565b5050506100d36000801b826100da60201b60201c565b50506105fd565b60006100ec83836101d860201b60201c565b6101cd5760016006600085815260200190815260200160002060000160008473ffffffffffffffffffffffffffffffffffffffff1673ffffffffffffffffffffffffffffffffffffffff16815260200190815260200160002060006101000a81548160ff02191690831515021790555061016a61024360201b60201c565b73ffffffffffffffffffffffffffffffffffffffff168273ffffffffffffffffffffffffffffffffffffffff16847f2f8788117e7eff1d82e926ec794901d17c78024a50270940304540a733656f0d60405160405180910390a4600190506101d2565b600090505b92915050565b60006006600084815260200190815260200160002060000160008373ffffffffffffffffffffffffffffffffffffffff1673ffffffffffffffffffffffffffffffffffffffff16815260200190815260200160002060009054906101000a900460ff16905092915050565b600033905090565b600080fd5b600073ffffffffffffffffffffffffffffffffffffffff82169050919050565b600061027b82610250565b9050919050565b61028b81610270565b811461029657600080fd5b50565b6000815190506102a881610282565b92915050565b6000602082840312156102c4576102c361024b565b5b60006102d284828501610299565b91505092915050565b600081519050919050565b7f4e487b7100000000000000000000000000000000000000000000000000000000600052604160045260246000fd5b7f4e487b7100000000000000000000000000000000000000000000000000000000600052602260045260246000fd5b6000600282049050600182168061035c57607f821691505b60208210810361036f5761036e610315565b5b50919050565b60008190508160005260206000209050919050565b60006020601f8301049050919050565b600082821b905092915050565b6000600883026103d77fffffffffffffffffffffffffffffffffffffffffffffffffffffffffffffffff8261039a565b6103e1868361039a565b95508019841693508086168417925050509392505050565b6000819050919050565b6000819050919050565b600061042861042361041e846103f9565b610403565b6103f9565b9050919050565b6000819050919050565b6104428361040d565b61045661044e8261042f565b8484546103a7565b825550505050565b600090565b61046b61045e565b610476818484610439565b505050565b5b8181101561049a5761048f600082610463565b60018101905061047c565b5050565b601f8211156104df576104b081610375565b6104b98461038a565b810160208510156104c8578190505b6104dc6104d48561038a565b83018261047b565b50505b505050565b600082821c905092915050565b6000610502600019846008026104e4565b1980831691505092915050565b600061051b83836104f1565b9150826002028217905092915050565b610534826102db565b67ffffffffffffffff81111561054d5761054c6102e6565b5b6105578254610344565b61056282828561049e565b600060209050601f8311600181146105955760008415610583578287015190505b61058d858261050f565b8655506105f5565b601f1984166105a386610375565b60005b828110156105cb578489015182556001820191506020850194506020810190506105a6565b868310156105e857848901516105e4601f8916826104f1565b8355505b6001600288020188555050505b505050505050565b6126c48061060c6000396000f3fe608060405234801561001057600080fd5b506004361061014d5760003560e01c806375794a3c116100c3578063c87b56dd1161007c578063c87b56dd146103ae578063d0def521146103de578063d547741f1461040e578063dbe4613d1461042a578063e985e9c514610448578063f06e1e7b146104785761014d565b806375794a3c146102ec57806391d148541461030a57806395d89b411461033a578063a217fddf14610358578063a22cb46514610376578063b88d4fde146103925761014d565b8063248a9ca311610115578063248a9ca3146102085780632f2ff15d1461023857806336568abe1461025457806342842e0e146102705780636352211e1461028c57806370a08231146102bc5761014d565b806301ffc9a71461015257806306fdde0314610182578063081812fc146101a0578063095ea7b3146101d057806323b872dd146101ec575b600080fd5b61016c60048036038101906101679190611ab5565b610494565b6040516101799190611afd565b60405180910390f35b61018a6104a6565b6040516101979190611ba8565b60405180910390f35b6101ba60048036038101906101b59190611c00565b610538565b6040516101c79190611c6e565b60405180910390f35b6101ea60048036038101906101e59190611cb5565b610554565b005b61020660048036038101906102019190611cf5565b61056a565b005b610222600480360381019061021d9190611d7e565b61066c565b60405161022f9190611dba565b60405180910390f35b610252600480360381019061024d9190611dd5565b61068c565b005b61026e60048036038101906102699190611dd5565b6106ae565b005b61028a60048036038101906102859190611cf5565b610729565b005b6102a660048036038101906102a19190611c00565b610749565b6040516102b39190611c6e565b60405180910390f35b6102d660048036038101906102d19190611e15565b61075b565b6040516102e39190611e51565b60405180910390f35b6102f4610815565b6040516103019190611e51565b60405180910390f35b610324600480360381019061031f9190611dd5565b61081b565b6040516103319190611afd565b60405180910390f35b610342610886565b60405161034f9190611ba8565b60405180910390f35b610360610918565b60405161036d9190611dba565b60405180910390f35b610390600480360381019061038b9190611e98565b61091f565b005b6103ac60048036038101906103a7919061200d565b610935565b005b6103c860048036038101906103c39190611c00565b61095a565b6040516103d59190611ba8565b60405180910390f35b6103f860048036038101906103f39190612131565b6109ff565b6040516104059190611e51565b60405180910390f35b61042860048036038101906104239190611dd5565b610a65565b005b610432610a87565b60405161043f9190611dba565b60405180910390f35b610462600480360381019061045d919061218d565b610aab565b60405161046f9190611afd565b60405180910390f35b610492600480360381019061048d9190611e15565b610b3f565b005b600061049f82610b7b565b9050919050565b6060600080546104b5906121fc565b80601f01602080910402602001604051908101604052809291908181526020018280546104e1906121fc565b801561052e5780601f106105035761010080835404028352916020019161052e565b820191906000526020600020905b81548152906001019060200180831161051157829003601f168201915b5050505050905090565b600061054382610bf5565b5061054d82610c7d565b9050919050565b6105668282610561610cba565b610cc2565b5050565b600073ffffffffffffffffffffffffffffffffffffffff168273ffffffffffffffffffffffffffffffffffffffff16036105dc5760006040517f64a0ae920000000000000000000000000000000000000000000000000000000081526004016105d39190611c6e565b60405180910390fd5b60006105f083836105eb610cba565b610cd4565b90508373ffffffffffffffffffffffffffffffffffffffff168173ffffffffffffffffffffffffffffffffffffffff1614610666578382826040517f64283d7b00000000000000000000000000000000000000000000000000000000815260040161065d9392919061222d565b60405180910390fd5b50505050565b600060066000838152602001908152602001600020600101549050919050565b6106958261066c565b61069e81610eee565b6106a88383610f02565b50505050565b6106b6610cba565b73ffffffffffffffffffffffffffffffffffffffff168173ffffffffffffffffffffffffffffffffffffffff161461071a576040517f6697b23200000000000000000000000000000000000000000000000000000000815260040160405180910390fd5b6107248282610ff4565b505050565b61074483838360405180602001604052806000815250610935565b505050565b600061075482610bf5565b9050919050565b60008073ffffffffffffffffffffffffffffffffffffffff168273ffffffffffffffffffffffffffffffffffffffff16036107ce5760006040517f89c62b640000000000000000000000000000000000000000000000000000000081526004016107c59190611c6e565b60405180910390fd5b600360008373ffffffffffffffffffffffffffffffffffffffff1673ffffffffffffffffffffffffffffffffffffffff168152602001908152602001600020549050919050565b60075481565b60006006600084815260200190815260200160002060000160008373ffffffffffffffffffffffffffffffffffffffff1673ffffffffffffffffffffffffffffffffffffffff16815260200190815260200160002060009054906101000a900460ff16905092915050565b606060018054610895906121fc565b80601f01602080910402602001604051908101604052809291908181526020018280546108c1906121fc565b801561090e5780601f106108e35761010080835404028352916020019161090e565b820191906000526020600020905b8154815290600101906020018083116108f157829003601f168201915b5050505050905090565b6000801b81565b61093161092a610cba565b83836110e7565b5050565b61094084848461056a565b61095461094b610cba565b85858585611256565b50505050565b606060086000838152602001908152602001600020805461097a906121fc565b80601f01602080910402602001604051908101604052809291908181526020018280546109a6906121fc565b80156109f35780601f106109c8576101008083540402835291602001916109f3565b820191906000526020600020905b8154815290600101906020018083116109d657829003601f168201915b50505050509050919050565b60007f43f25613eb2f15fb17222a5d424ca2655743e71265d98e4b93c05e5fb589ecde610a2b81610eee565b600060076000815480929190610a4090612293565b919050559050610a508582611407565b610a5a8185611500565b809250505092915050565b610a6e8261066c565b610a7781610eee565b610a818383610ff4565b50505050565b7f43f25613eb2f15fb17222a5d424ca2655743e71265d98e4b93c05e5fb589ecde81565b6000600560008473ffffffffffffffffffffffffffffffffffffffff1673ffffffffffffffffffffffffffffffffffffffff16815260200190815260200160002060008373ffffffffffffffffffffffffffffffffffffffff1673ffffffffffffffffffffffffffffffffffffffff16815260200190815260200160002060009054906101000a900460ff16905092915050565b6000801b610b4c81610eee565b610b767f43f25613eb2f15fb17222a5d424ca2655743e71265d98e4b93c05e5fb589ecde83610f02565b505050565b60007f7965db0b000000000000000000000000000000000000000000000000000000007bffffffffffffffffffffffffffffffffffffffffffffffffffffffff1916827bffffffffffffffffffffffffffffffffffffffffffffffffffffffff19161480610bee5750610bed82611525565b5b9050919050565b600080610c0183611607565b9050600073ffffffffffffffffffffffffffffffffffffffff168173ffffffffffffffffffffffffffffffffffffffff1603610c7457826040517f7e273289000000000000000000000000000000000000000000000000000000008152600401610c6b9190611e51565b60405180910390fd5b80915050919050565b60006004600083815260200190815260200160002060009054906101000a900473ffffffffffffffffffffffffffffffffffffffff169050919050565b600033905090565b610ccf8383836001611644565b505050565b600080610ce084611607565b9050600073ffffffffffffffffffffffffffffffffffffffff168373ffffffffffffffffffffffffffffffffffffffff1614610d2257610d21818486611809565b5b600073ffffffffffffffffffffffffffffffffffffffff168173ffffffffffffffffffffffffffffffffffffffff1614610db357610d64600085600080611644565b6001600360008373ffffffffffffffffffffffffffffffffffffffff1673ffffffffffffffffffffffffffffffffffffffff168152602001908152602001600020600082825403925050819055505b600073ffffffffffffffffffffffffffffffffffffffff168573ffffffffffffffffffffffffffffffffffffffff1614610e36576001600360008773ffffffffffffffffffffffffffffffffffffffff1673ffffffffffffffffffffffffffffffffffffffff168152602001908152602001600020600082825401925050819055505b846002600086815260200190815260200160002060006101000a81548173ffffffffffffffffffffffffffffffffffffffff021916908373ffffffffffffffffffffffffffffffffffffffff160217905550838573ffffffffffffffffffffffffffffffffffffffff168273ffffffffffffffffffffffffffffffffffffffff167fddf252ad1be2c89b69c2b068fc378daa952ba7f163c4a11628f55a4df523b3ef60405160405180910390a4809150509392505050565b610eff81610efa610cba565b6118cd565b50565b6000610f0e838361081b565b610fe95760016006600085815260200190815260200160002060000160008473ffffffffffffffffffffffffffffffffffffffff1673ffffffffffffffffffffffffffffffffffffffff16815260200190815260200160002060006101000a81548160ff021916908315150217905550610f86610cba565b73ffffffffffffffffffffffffffffffffffffffff168273ffffffffffffffffffffffffffffffffffffffff16847f2f8788117e7eff1d82e926ec794901d17c78024a50270940304540a733656f0d60405160405180910390a460019050610fee565b600090505b92915050565b6000611000838361081b565b156110dc5760006006600085815260200190815260200160002060000160008473ffffffffffffffffffffffffffffffffffffffff1673ffffffffffffffffffffffffffffffffffffffff16815260200190815260200160002060006101000a81548160ff021916908315150217905550611079610cba565b73ffffffffffffffffffffffffffffffffffffffff168273ffffffffffffffffffffffffffffffffffffffff16847ff6391f5c32d9c69d2a47ea670b442974b53935d1edc7fd64eb21e047a839171b60405160405180910390a4600190506110e1565b600090505b92915050565b600073ffffffffffffffffffffffffffffffffffffffff168273ffffffffffffffffffffffffffffffffffffffff160361115857816040517f5b08ba1800000000000000000000000000000000000000000000000000000000815260040161114f9190611c6e565b60405180910390fd5b80600560008573ffffffffffffffffffffffffffffffffffffffff1673ffffffffffffffffffffffffffffffffffffffff16815260200190815260200160002060008473ffffffffffffffffffffffffffffffffffffffff1673ffffffffffffffffffffffffffffffffffffffff16815260200190815260200160002060006101000a81548160ff0219169083151502179055508173ffffffffffffffffffffffffffffffffffffffff168373ffffffffffffffffffffffffffffffffffffffff167f17307eab39ab6107e8899845ad3d59bd9653f200f220920489ca2b5937696c31836040516112499190611afd565b60405180910390a3505050565b60008373ffffffffffffffffffffffffffffffffffffffff163b1115611400578273ffffffffffffffffffffffffffffffffffffffff1663150b7a02868685856040518563ffffffff1660e01b81526004016112b59493929190612330565b6020604051808303816000875af19250505080156112f157506040513d601f19601f820116820180604052508101906112ee9190612391565b60015b611375573d8060008114611321576040519150601f19603f3d011682016040523d82523d6000602084013e611326565b606091505b50600081510361136d57836040517f64a0ae920000000000000000000000000000000000000000000000000000000081526004016113649190611c6e565b60405180910390fd5b805181602001fd5b63150b7a0260e01b7bffffffffffffffffffffffffffffffffffffffffffffffffffffffff1916817bffffffffffffffffffffffffffffffffffffffffffffffffffffffff1916146113fe57836040517f64a0ae920000000000000000000000000000000000000000000000000000000081526004016113f59190611c6e565b60405180910390fd5b505b5050505050565b600073ffffffffffffffffffffffffffffffffffffffff168273ffffffffffffffffffffffffffffffffffffffff16036114795760006040517f64a0ae920000000000000000000000000000000000000000000000000000000081526004016114709190611c6e565b60405180910390fd5b600061148783836000610cd4565b9050600073ffffffffffffffffffffffffffffffffffffffff168173ffffffffffffffffffffffffffffffffffffffff16146114fb5760006040517f73c6ac6e0000000000000000000000000000000000000000000000000000000081526004016114f29190611c6e565b60405180910390fd5b505050565b80600860008481526020019081526020016000209081611520919061256a565b505050565b60007f80ac58cd000000000000000000000000000000000000000000000000000000007bffffffffffffffffffffffffffffffffffffffffffffffffffffffff1916827bffffffffffffffffffffffffffffffffffffffffffffffffffffffff191614806115f057507f5b5e139f000000000000000000000000000000000000000000000000000000007bffffffffffffffffffffffffffffffffffffffffffffffffffffffff1916827bffffffffffffffffffffffffffffffffffffffffffffffffffffffff1916145b8061160057506115ff8261191e565b5b9050919050565b60006002600083815260200190815260200160002060009054906101000a900473ffffffffffffffffffffffffffffffffffffffff169050919050565b808061167d5750600073ffffffffffffffffffffffffffffffffffffffff168273ffffffffffffffffffffffffffffffffffffffff1614155b156117b157600061168d84610bf5565b9050600073ffffffffffffffffffffffffffffffffffffffff168373ffffffffffffffffffffffffffffffffffffffff16141580156116f857508273ffffffffffffffffffffffffffffffffffffffff168173ffffffffffffffffffffffffffffffffffffffff1614155b801561170b57506117098184610aab565b155b1561174d57826040517fa9fbf51f0000000000000000000000000000000000000000000000000000000081526004016117449190611c6e565b60405180910390fd5b81156117af57838573ffffffffffffffffffffffffffffffffffffffff168273ffffffffffffffffffffffffffffffffffffffff167f8c5be1e5ebec7d5bd14f71427d1e84f3dd0314c0f7b2291e5b200ac8c7c3b92560405160405180910390a45b505b836004600085815260200190815260200160002060006101000a81548173ffffffffffffffffffffffffffffffffffffffff021916908373ffffffffffffffffffffffffffffffffffffffff16021790555050505050565b611814838383611988565b6118c857600073ffffffffffffffffffffffffffffffffffffffff168373ffffffffffffffffffffffffffffffffffffffff160361188957806040517f7e2732890000000000000000000000000000000000000000000000000000000081526004016118809190611e51565b60405180910390fd5b81816040517f177e802f0000000000000000000000000000000000000000000000000000000081526004016118bf92919061263c565b60405180910390fd5b505050565b6118d7828261081b565b61191a5780826040517fe2517d3f000000000000000000000000000000000000000000000000000000008152600401611911929190612665565b60405180910390fd5b5050565b60007f01ffc9a7000000000000000000000000000000000000000000000000000000007bffffffffffffffffffffffffffffffffffffffffffffffffffffffff1916827bffffffffffffffffffffffffffffffffffffffffffffffffffffffff1916149050919050565b60008073ffffffffffffffffffffffffffffffffffffffff168373ffffffffffffffffffffffffffffffffffffffff1614158015611a4057508273ffffffffffffffffffffffffffffffffffffffff168473ffffffffffffffffffffffffffffffffffffffff161480611a015750611a008484610aab565b5b80611a3f57508273ffffffffffffffffffffffffffffffffffffffff16611a2783610c7d565b73ffffffffffffffffffffffffffffffffffffffff16145b5b90509392505050565b6000604051905090565b600080fd5b600080fd5b60007fffffffff0000000000000000000000000000000000000000000000000000000082169050919050565b611a9281611a5d565b8114611a9d57600080fd5b50565b600081359050611aaf81611a89565b92915050565b600060208284031215611acb57611aca611a53565b5b6000611ad984828501611aa0565b91505092915050565b60008115159050919050565b611af781611ae2565b82525050565b6000602082019050611b126000830184611aee565b92915050565b600081519050919050565b600082825260208201905092915050565b60005b83811015611b52578082015181840152602081019050611b37565b60008484015250505050565b6000601f19601f8301169050919050565b6000611b7a82611b18565b611b848185611b23565b9350611b94818560208601611b34565b611b9d81611b5e565b840191505092915050565b60006020820190508181036000830152611bc28184611b6f565b905092915050565b6000819050919050565b611bdd81611bca565b8114611be857600080fd5b50565b600081359050611bfa81611bd4565b92915050565b600060208284031215611c1657611c15611a53565b5b6000611c2484828501611beb565b91505092915050565b600073ffffffffffffffffffffffffffffffffffffffff82169050919050565b6000611c5882611c2d565b9050919050565b611c6881611c4d565b82525050565b6000602082019050611c836000830184611c5f565b92915050565b611c9281611c4d565b8114611c9d57600080fd5b50565b600081359050611caf81611c89565b92915050565b60008060408385031215611ccc57611ccb611a53565b5b6000611cda85828601611ca0565b9250506020611ceb85828601611beb565b9150509250929050565b600080600060608486031215611d0e57611d0d611a53565b5b6000611d1c86828701611ca0565b9350506020611d2d86828701611ca0565b9250506040611d3e86828701611beb565b9150509250925092565b6000819050919050565b611d5b81611d48565b8114611d6657600080fd5b50565b600081359050611d7881611d52565b92915050565b600060208284031215611d9457611d93611a53565b5b6000611da284828501611d69565b91505092915050565b611db481611d48565b82525050565b6000602082019050611dcf6000830184611dab565b92915050565b60008060408385031215611dec57611deb611a53565b5b6000611dfa85828601611d69565b9250506020611e0b85828601611ca0565b9150509250929050565b600060208284031215611e2b57611e2a611a53565b5b6000611e3984828501611ca0565b91505092915050565b611e4b81611bca565b82525050565b6000602082019050611e666000830184611e42565b92915050565b611e7581611ae2565b8114611e8057600080fd5b50565b600081359050611e9281611e6c565b92915050565b60008060408385031215611eaf57611eae611a53565b5b6000611ebd85828601611ca0565b9250506020611ece85828601611e83565b9150509250929050565b600080fd5b600080fd5b7f4e487b7100000000000000000000000000000000000000000000000000000000600052604160045260246000fd5b611f1a82611b5e565b810181811067ffffffffffffffff82111715611f3957611f38611ee2565b5b80604052505050565b6000611f4c611a49565b9050611f588282611f11565b919050565b600067ffffffffffffffff821115611f7857611f77611ee2565b5b611f8182611b5e565b9050602081019050919050565b82818337600083830152505050565b6000611fb0611fab84611f5d565b611f42565b905082815260208101848484011115611fcc57611fcb611edd565b5b611fd7848285611f8e565b509392505050565b600082601f830112611ff457611ff3611ed8565b5b8135612004848260208601611f9d565b91505092915050565b6000806000806080858703121561202757612026611a53565b5b600061203587828801611ca0565b945050602061204687828801611ca0565b935050604061205787828801611beb565b925050606085013567ffffffffffffffff81111561207857612077611a58565b5b61208487828801611fdf565b91505092959194509250565b600067ffffffffffffffff8211156120ab576120aa611ee2565b5b6120b482611b5e565b9050602081019050919050565b60006120d46120cf84612090565b611f42565b9050828152602081018484840111156120f0576120ef611edd565b5b6120fb848285611f8e565b509392505050565b600082601f83011261211857612117611ed8565b5b81356121288482602086016120c1565b91505092915050565b6000806040838503121561214857612147611a53565b5b600061215685828601611ca0565b925050602083013567ffffffffffffffff81111561217757612176611a58565b5b61218385828601612103565b9150509250929050565b600080604083850312156121a4576121a3611a53565b5b60006121b285828601611ca0565b92505060206121c385828601611ca0565b9150509250929050565b7f4e487b7100000000000000000000000000000000000000000000000000000000600052602260045260246000fd5b6000600282049050600182168061221457607f821691505b602082108103612227576122266121cd565b5b50919050565b60006060820190506122426000830186611c5f565b61224f6020830185611e42565b61225c6040830184611c5f565b949350505050565b7f4e487b7100000000000000000000000000000000000000000000000000000000600052601160045260246000fd5b600061229e82611bca565b91507fffffffffffffffffffffffffffffffffffffffffffffffffffffffffffffffff82036122d0576122cf612264565b5b600182019050919050565b600081519050919050565b600082825260208201905092915050565b6000612302826122db565b61230c81856122e6565b935061231c818560208601611b34565b61232581611b5e565b840191505092915050565b60006080820190506123456000830187611c5f565b6123526020830186611c5f565b61235f6040830185611e42565b818103606083015261237181846122f7565b905095945050505050565b60008151905061238b81611a89565b92915050565b6000602082840312156123a7576123a6611a53565b5b60006123b58482850161237c565b91505092915050565b60008190508160005260206000209050919050565b60006020601f8301049050919050565b600082821b905092915050565b6000600883026124207fffffffffffffffffffffffffffffffffffffffffffffffffffffffffffffffff826123e3565b61242a86836123e3565b95508019841693508086168417925050509392505050565b6000819050919050565b600061246761246261245d84611bca565b612442565b611bca565b9050919050565b6000819050919050565b6124818361244c565b61249561248d8261246e565b8484546123f0565b825550505050565b600090565b6124aa61249d565b6124b5818484612478565b505050565b5b818110156124d9576124ce6000826124a2565b6001810190506124bb565b5050565b601f82111561251e576124ef816123be565b6124f8846123d3565b81016020851015612507578190505b61251b612513856123d3565b8301826124ba565b50505b505050565b600082821c905092915050565b600061254160001984600802612523565b1980831691505092915050565b600061255a8383612530565b9150826002028217905092915050565b61257382611b18565b67ffffffffffffffff81111561258c5761258b611ee2565b5b61259682546121fc565b6125a18282856124dd565b600060209050601f8311600181146125d457600084156125c2578287015190505b6125cc858261254e565b865550612634565b601f1984166125e2866123be565b60005b8281101561260a578489015182556001820191506020850194506020810190506125e5565b868310156126275784890151612623601f891682612530565b8355505b6001600288020188555050505b505050505050565b60006040820190506126516000830185611c5f565b61265e6020830184611e42565b9392505050565b600060408201905061267a6000830185611c5f565b6126876020830184611dab565b939250505056fea264697066735822122076d07524c2d05f3c399865f7a7a4c36391eb0ae19d7fa07d5e4b75387bac04ec64736f6c634300081c0033",
  "linkReferences": {},
  "deployedLinkReferences": {}
}